:100000000C9434000C9451000C9451000C94510049
:100010000C9451000C9451000C9451000C9451001C
:100020000C9451000C9451000C9451000C9451000C
:100030000C9451000C9451000C9451000C945100FC
:100040000C9451000C9453000C9451000C945100EA
:100050000C9451000C9451000C9451000C945100DC
:100060000C9451000C94510011241FBECFEFD8E026
:10007000DEBFCDBF11E0A0E0B1E0E6E0F1E002C0FC
:1000800005900D92A230B107D9F721E0A2E0B1E0CE
:1000900001C01D92A230B207E1F70E9464000C94E7
:1000A00081000C9400001F920F920FB60F92112442
:1000B0008F938EB58BB981E3809300018F910F9060
:1000C0000FBE0F901F9018958CB5836D8CBD7894E2
:1000D00084B1886284B98AB18FEF8AB985E08EBD18
:1000E00080E380930001809100018133E1F72FEFDD
:1000F00089E698E1215080409040E1F700C000007F
:06010000E7CFF894FFCFE9
:020106003000C7
:00000001FF
