:100000000C94B1000C94C3000C94C3000C94C30076
:100010000C94C3000C94C3000C94C3000C94C30054
:100020000C94C3000C94C3000C94C3000C94C30044
:100030000C94C3000C94C3000C94C3000C94C30034
:100040000C94C3000C94C3000C940F010C94C500D5
:100050000C94C3000C94C3000C94C3000C94C30014
:100060000C94C3000C94C30000407A10F35A00A013
:10007000724E18090010A5D4E80000E87648170071
:1000800000E40B54020000CA9A3B000000E1F505B1
:10009000000080969800000040420F000000A086FB
:1000A00001000000102700000000E803000000002D
:1000B0006400000000000A000000000001000000D1
:1000C00000002C76D888DC674F0823DFC1DFAE59EB
:1000D000E1B1B796E5E3E453C63AE651997696E87E
:1000E000E6C28426EB898C9B62ED407C6FFCEFBC02
:1000F0009C9F40F2BAA56FA5F490055A2AF75C932D
:100100006B6CF9676DC11BFCE0E40D47FEF520E662
:10011000B500D0ED902E0300943577050080841E45
:10012000080000204E0A000000C80C333333330FA0
:10013000986E12831141EF8D2114893BE65516CF3D
:10014000FEE6DB18D1844B381BF77C1D901DA4BB49
:10015000E424203284725E228100C9F124ECA1E5FE
:100160003D2711241FBECFEFD8E0DEBFCDBF21E079
:10017000A0E0B1E001C01D92AF30B207E1F70E94EC
:1001800055010C946A040C9400001F920F920FB654
:100190000F9211248F939F93EF93FF93809100010F
:1001A000813351F4E0910101F0910201ED5FFE4FC6
:1001B00080818093C6000DC080910001823349F494
:1001C000E0910101F0910201E75FFE4F8081809391
:1001D000C600809101019091020101969093020165
:1001E00080930101809101019091020106974CF0EA
:1001F000E1ECF0E080818F7D80831092020110920B
:100200000101E1ECF0E0808180618083FF91EF915A
:100210009F918F910F900FBE0F901F9018951F9276
:100220000F920FB60F9211248F93EF93FF9380914B
:10023000C60080930001E1ECF0E080818062808361
:1002400080818F7E8083FF91EF918F910F900FBE01
:100250000F901F9018950F931F93CF93DF9304EC8B
:1002600010E0F801C081D1819C01990F440B550B1E
:1002700060E472E48FE090E00E946B01215031094C
:100280002C2B3D2BF80131832083E1ECF0E08081C1
:1002900088698083E2ECF0E08081866080837894D6
:1002A000DF91CF911F910F9108954AE063E071E0D3
:1002B00080E094E00E94CC0109E011E022E046E0F9
:1002C0006DEC7CE88FE793E40E94AC0180E895E256
:1002D0000E942B01FFCF052E97FB1EF400940E9475
:1002E000820157FD07D00E948A0107FC03D04EF41B
:1002F0000C94820150954095309521953F4F4F4F7A
:100300005F4F089590958095709561957F4F8F4FC1
:100310009F4F0895A1E21A2EAA1BBB1BFD010DC021
:10032000AA1FBB1FEE1FFF1FA217B307E407F507A5
:1003300020F0A21BB30BE40BF50B661F771F881F81
:10034000991F1A9469F760957095809590959B0117
:10035000AC01BD01CF010895EF920F931F93CF938E
:10036000DF93E80147FD02C034E001C034E1042E10
:10037000000C550B57FF03C0519541955109E32ED1
:10038000022F242FAE010E94F101CE01DF91CF9107
:100390001F910F91EF900895BB274A3031F49923B4
:1003A00022F4BDE2909581959F4F0C94D801BB2714
:1003B000FB015527AA27880F991FAA1FA41710F021
:1003C000A41B83955051B9F7A05DAA3308F0A95D2D
:1003D000A193009779F7B111B1931192CB010C94CD
:1003E0002304A9E0B0E0E7EFF1E00C9439046A01DE
:1003F000122FB02E2BE3201720F0FF24F394F00EE1
:1004000002C02CE3F22E0F2D27E0AE014F5F5F4FAD
:100410000E944B03BC014981842F8970813031F0E7
:10042000E1FC06C0E0FE06C090E205C09DE203C00C
:100430009BE201C090E05E2D507143FF3CC09111E2
:1004400002C083E001C084E0811718F4212F281B2B
:1004500001C020E051110BC0F601822F30E2882349
:1004600019F031938150FBCFC20ED11C20E09923AB
:1004700029F0D6019C93F60131966F01C6010396CF
:10048000E2FE0AC03EE4D6013C9341E411964C934F
:10049000119712963C9306C03EE6F601308341E682
:1004A00041833283FC01322F40E2332309F442C0FE
:1004B00041933150FACF42FF44C0911102C083E012
:1004C00001C084E0811718F4212F281B01C020E00F
:1004D00051110BC0F601822F30E2882319F03193BD
:1004E0008150FBCFC20ED11C20E0992329F0D60108
:1004F0009C93F60131966F01C6010396E2FE0BC094
:1005000039E4D6013C933EE411963C93119736E4CE
:1005100012963C9307C039E6F60130833EE63183FC
:1005200036E63283FC01322F40E2332319F0419347
:100530003150FBCFFC01E20FF11D10828EEF9FEFD7
:10054000A6C021E030E0911102C020E030E0161694
:1005500017061CF4FB01319602C0E1E0F0E02E0F1B
:100560003F1FBB2021F0EB2DF0E0319602C0E0E010
:10057000F0E02E0F3F1FE12FF0E02E173F071CF495
:10058000121B212F01C020E08E2D887159F4F60135
:10059000822F30E2882319F031938150FBCFC20EB5
:1005A000D11C20E0992329F0D6019C93F6013196C5
:1005B0006F0151110BC0F601822F90E3882319F0CF
:1005C00091938150FBCFC20ED11C20E00F2D060F5E
:1005D0009A81342F307144FF03C0913309F40150E4
:1005E000101624F4093018F008E001C001E0AB0156
:1005F00077FF02C040E050E0FB01E41BF50BA1E0F7
:10060000B0E0AC0FBD1FEA0FFB1F8EE2A82E4B011E
:10061000801A91080B2D10E01195019511094F3F9B
:10062000BFEF5B0721F4D601AC9211966D01641700
:1006300075072CF08416950614F4818101C080E3BF
:10064000415051093196D60111967D01401751074D
:1006500024F0D6018C936701E2CF6417750739F453
:10066000963320F4953319F4311101C081E3F6017A
:100670008083F701822F90E2882319F091938150B3
:10068000FBCFF701E20FF11D108280E090E0299688
:10069000ECE00C945504283008F027E03327DA0109
:1006A000990F311D87FD916000966105710539F440
:1006B00032602E5F3D9330E32A95E1F708959F3F26
:1006C00030F080387105610509F03C5F3C5F3D9377
:1006D000913008F08068911DDF93CF931F930F93A3
:1006E000FF92EF92192F987F9695E92F9695969500
:1006F000E90FFF27EE53FF4F99273327EE24FF24FE
:10070000A701E70105900894079428F4360FE71E27
:10071000F81E491F511D660F771F881F991F0694E9
:10072000A1F70590079428F4E70EF81E491F561FFD
:10073000C11D770F881F991F661F0694A1F70590AA
:10074000079428F4F80E491F561FC71FD11D880FA4
:10075000991F661F771F0694A1F70590079420F450
:10076000490F561FC71FD81F990F661F771F881F75
:100770000694A9F784911095177041F0D695C79506
:1007800057954795F794E7941A95C1F7E8E6F0E096
:1007900068941590159135916591959105907FE23A
:1007A0007395E118F10A430B560BC90BD009C0F73A
:1007B000E10CF11E431F561FC91FD01D7EF470337C
:1007C00011F48A95E6CFE894015030F0080F0AF44E
:1007D0000027021708F4202F2395022F7A3328F0E0
:1007E00079E37D932A95E9F710C07D932A9589F6E0
:1007F000069497956795379517951794E118F10A20
:10080000430B560BC90BD00998F023957E91739535
:100810007A3308F070E37C932013B8F77E9170610F
:100820007D9330F0839571E37D9370E32A95E1F732
:100830001124EF90FF900F911F91CF91DF91992795
:1008400087FD90950895DC01FC01672F7191772356
:10085000E1F7329704C07C916D9370836291AE177B
:10086000BF07C8F308952F923F924F925F926F9205
:100870007F928F929F92AF92BF92CF92DF92EF9230
:10088000FF920F931F93CF93DF93CDB7DEB7CA1BB1
:10089000DB0B0FB6F894DEBF0FBECDBF09942A88DC
:1008A000398848885F846E847D848C849B84AA8484
:1008B000B984C884DF80EE80FD800C811B81AA8111
:1008C000B981CE0FD11D0FB6F894DEBF0FBECDBFDC
:0808D000ED010895F894FFCF3B
:00000001FF
